{
  "contractName": "Ethpool",
  "abi": [
    {
      "inputs": [],
      "stateMutability": "nonpayable",
      "type": "constructor"
    },
    {
      "anonymous": false,
      "inputs": [
        {
          "indexed": true,
          "internalType": "bytes32",
          "name": "role",
          "type": "bytes32"
        },
        {
          "indexed": true,
          "internalType": "bytes32",
          "name": "previousAdminRole",
          "type": "bytes32"
        },
        {
          "indexed": true,
          "internalType": "bytes32",
          "name": "newAdminRole",
          "type": "bytes32"
        }
      ],
      "name": "RoleAdminChanged",
      "type": "event"
    },
    {
      "anonymous": false,
      "inputs": [
        {
          "indexed": true,
          "internalType": "bytes32",
          "name": "role",
          "type": "bytes32"
        },
        {
          "indexed": true,
          "internalType": "address",
          "name": "account",
          "type": "address"
        },
        {
          "indexed": true,
          "internalType": "address",
          "name": "sender",
          "type": "address"
        }
      ],
      "name": "RoleGranted",
      "type": "event"
    },
    {
      "anonymous": false,
      "inputs": [
        {
          "indexed": true,
          "internalType": "bytes32",
          "name": "role",
          "type": "bytes32"
        },
        {
          "indexed": true,
          "internalType": "address",
          "name": "account",
          "type": "address"
        },
        {
          "indexed": true,
          "internalType": "address",
          "name": "sender",
          "type": "address"
        }
      ],
      "name": "RoleRevoked",
      "type": "event"
    },
    {
      "inputs": [],
      "name": "DEFAULT_ADMIN_ROLE",
      "outputs": [
        {
          "internalType": "bytes32",
          "name": "",
          "type": "bytes32"
        }
      ],
      "stateMutability": "view",
      "type": "function",
      "constant": true
    },
    {
      "inputs": [],
      "name": "TEAM_ROLE",
      "outputs": [
        {
          "internalType": "bytes32",
          "name": "",
          "type": "bytes32"
        }
      ],
      "stateMutability": "view",
      "type": "function",
      "constant": true
    },
    {
      "inputs": [
        {
          "internalType": "address",
          "name": "",
          "type": "address"
        }
      ],
      "name": "balances",
      "outputs": [
        {
          "internalType": "uint256",
          "name": "",
          "type": "uint256"
        }
      ],
      "stateMutability": "view",
      "type": "function",
      "constant": true
    },
    {
      "inputs": [
        {
          "internalType": "bytes32",
          "name": "role",
          "type": "bytes32"
        }
      ],
      "name": "getRoleAdmin",
      "outputs": [
        {
          "internalType": "bytes32",
          "name": "",
          "type": "bytes32"
        }
      ],
      "stateMutability": "view",
      "type": "function",
      "constant": true
    },
    {
      "inputs": [
        {
          "internalType": "bytes32",
          "name": "role",
          "type": "bytes32"
        },
        {
          "internalType": "address",
          "name": "account",
          "type": "address"
        }
      ],
      "name": "grantRole",
      "outputs": [],
      "stateMutability": "nonpayable",
      "type": "function"
    },
    {
      "inputs": [
        {
          "internalType": "bytes32",
          "name": "role",
          "type": "bytes32"
        },
        {
          "internalType": "address",
          "name": "account",
          "type": "address"
        }
      ],
      "name": "hasRole",
      "outputs": [
        {
          "internalType": "bool",
          "name": "",
          "type": "bool"
        }
      ],
      "stateMutability": "view",
      "type": "function",
      "constant": true
    },
    {
      "inputs": [
        {
          "internalType": "bytes32",
          "name": "role",
          "type": "bytes32"
        },
        {
          "internalType": "address",
          "name": "account",
          "type": "address"
        }
      ],
      "name": "renounceRole",
      "outputs": [],
      "stateMutability": "nonpayable",
      "type": "function"
    },
    {
      "inputs": [
        {
          "internalType": "bytes32",
          "name": "role",
          "type": "bytes32"
        },
        {
          "internalType": "address",
          "name": "account",
          "type": "address"
        }
      ],
      "name": "revokeRole",
      "outputs": [],
      "stateMutability": "nonpayable",
      "type": "function"
    },
    {
      "inputs": [
        {
          "internalType": "address",
          "name": "",
          "type": "address"
        }
      ],
      "name": "shares",
      "outputs": [
        {
          "internalType": "uint256",
          "name": "",
          "type": "uint256"
        }
      ],
      "stateMutability": "view",
      "type": "function",
      "constant": true
    },
    {
      "inputs": [
        {
          "internalType": "bytes4",
          "name": "interfaceId",
          "type": "bytes4"
        }
      ],
      "name": "supportsInterface",
      "outputs": [
        {
          "internalType": "bool",
          "name": "",
          "type": "bool"
        }
      ],
      "stateMutability": "view",
      "type": "function",
      "constant": true
    },
    {
      "inputs": [],
      "name": "deposit",
      "outputs": [],
      "stateMutability": "payable",
      "type": "function",
      "payable": true
    },
    {
      "inputs": [
        {
          "internalType": "address",
          "name": "user",
          "type": "address"
        }
      ],
      "name": "getBalance",
      "outputs": [
        {
          "internalType": "uint256",
          "name": "",
          "type": "uint256"
        }
      ],
      "stateMutability": "view",
      "type": "function",
      "constant": true
    },
    {
      "inputs": [],
      "name": "getPrize",
      "outputs": [
        {
          "internalType": "uint256",
          "name": "",
          "type": "uint256"
        }
      ],
      "stateMutability": "view",
      "type": "function",
      "constant": true
    },
    {
      "inputs": [
        {
          "internalType": "address",
          "name": "member",
          "type": "address"
        }
      ],
      "name": "grantTeamRole",
      "outputs": [],
      "stateMutability": "nonpayable",
      "type": "function"
    },
    {
      "inputs": [
        {
          "internalType": "address",
          "name": "user",
          "type": "address"
        }
      ],
      "name": "getShare",
      "outputs": [
        {
          "internalType": "uint256",
          "name": "",
          "type": "uint256"
        }
      ],
      "stateMutability": "view",
      "type": "function",
      "constant": true
    },
    {
      "inputs": [],
      "name": "getContractBalance",
      "outputs": [
        {
          "internalType": "uint256",
          "name": "",
          "type": "uint256"
        }
      ],
      "stateMutability": "view",
      "type": "function",
      "constant": true
    }
  ],
  "bytecode": "0x60806040523480156200001157600080fd5b50620000276000801b336200002d60201b60201c565b620001a6565b6200003f82826200004360201b60201c565b5050565b6200005582826200013460201b60201c565b6200013057600160008084815260200190815260200160002060000160008373ffffffffffffffffffffffffffffffffffffffff1673ffffffffffffffffffffffffffffffffffffffff16815260200190815260200160002060006101000a81548160ff021916908315150217905550620000d56200019e60201b60201c565b73ffffffffffffffffffffffffffffffffffffffff168173ffffffffffffffffffffffffffffffffffffffff16837f2f8788117e7eff1d82e926ec794901d17c78024a50270940304540a733656f0d60405160405180910390a45b5050565b600080600084815260200190815260200160002060000160008373ffffffffffffffffffffffffffffffffffffffff1673ffffffffffffffffffffffffffffffffffffffff16815260200190815260200160002060009054906101000a900460ff16905092915050565b600033905090565b61162680620001b66000396000f3fe6080604052600436106100f35760003560e01c806391d148541161008a578063d0e30db011610059578063d0e30db014610364578063d547741f1461036e578063f52c395a14610397578063f8b2cb4f146103c0576100f3565b806391d1485414610294578063a217fddf146102d1578063c34f6b0d146102fc578063ce7c2ac214610327576100f3565b806336568abe116100c657806336568abe146101d857806349d5e604146102015780634b3ab9c51461022c5780636f9fb98a14610269576100f3565b806301ffc9a7146100f8578063248a9ca31461013557806327e235e3146101725780632f2ff15d146101af575b600080fd5b34801561010457600080fd5b5061011f600480360381019061011a9190610fc4565b6103fd565b60405161012c919061116d565b60405180910390f35b34801561014157600080fd5b5061015c60048036038101906101579190610f5f565b610477565b6040516101699190611188565b60405180910390f35b34801561017e57600080fd5b5061019960048036038101906101949190610f36565b610496565b6040516101a69190611225565b60405180910390f35b3480156101bb57600080fd5b506101d660048036038101906101d19190610f88565b6104ae565b005b3480156101e457600080fd5b506101ff60048036038101906101fa9190610f88565b6104d7565b005b34801561020d57600080fd5b5061021661055a565b6040516102239190611188565b60405180910390f35b34801561023857600080fd5b50610253600480360381019061024e9190610f36565b61057e565b6040516102609190611225565b60405180910390f35b34801561027557600080fd5b5061027e6105f6565b60405161028b9190611225565b60405180910390f35b3480156102a057600080fd5b506102bb60048036038101906102b69190610f88565b610600565b6040516102c8919061116d565b60405180910390f35b3480156102dd57600080fd5b506102e661066a565b6040516102f39190611188565b60405180910390f35b34801561030857600080fd5b50610311610671565b60405161031e9190611225565b60405180910390f35b34801561033357600080fd5b5061034e60048036038101906103499190610f36565b61067b565b60405161035b9190611225565b60405180910390f35b61036c610693565b005b34801561037a57600080fd5b5061039560048036038101906103909190610f88565b6106dd565b005b3480156103a357600080fd5b506103be60048036038101906103b99190610f36565b610706565b005b3480156103cc57600080fd5b506103e760048036038101906103e29190610f36565b6107b5565b6040516103f49190611225565b60405180910390f35b60007f7965db0b000000000000000000000000000000000000000000000000000000007bffffffffffffffffffffffffffffffffffffffffffffffffffffffff1916827bffffffffffffffffffffffffffffffffffffffffffffffffffffffff19161480610470575061046f826107fe565b5b9050919050565b6000806000838152602001908152602001600020600101549050919050565b60016020528060005260406000206000915090505481565b6104b782610477565b6104c8816104c3610868565b610870565b6104d2838361090d565b505050565b6104df610868565b73ffffffffffffffffffffffffffffffffffffffff168173ffffffffffffffffffffffffffffffffffffffff161461054c576040517f08c379a000000000000000000000000000000000000000000000000000000000815260040161054390611205565b60405180910390fd5b61055682826109ed565b5050565b7f5146a08baf902532d0ee2f909971144f12ca32651cd70cbee1117cddfb3b3b3381565b600080600160008473ffffffffffffffffffffffffffffffffffffffff1673ffffffffffffffffffffffffffffffffffffffff1681526020019081526020016000205490506105eb6004546105dd606484610ace90919063ffffffff16565b610ae490919063ffffffff16565b905080915050919050565b6000600454905090565b600080600084815260200190815260200160002060000160008373ffffffffffffffffffffffffffffffffffffffff1673ffffffffffffffffffffffffffffffffffffffff16815260200190815260200160002060009054906101000a900460ff16905092915050565b6000801b81565b6000600554905090565b60026020528060005260406000206000915090505481565b6106bd7f5146a08baf902532d0ee2f909971144f12ca32651cd70cbee1117cddfb3b3b3333610600565b156106d0576106cb34610afa565b6106db565b6106da3334610b33565b5b565b6106e682610477565b6106f7816106f2610868565b610870565b61070183836109ed565b505050565b6000600160008373ffffffffffffffffffffffffffffffffffffffff1673ffffffffffffffffffffffffffffffffffffffff1681526020019081526020016000205414610788576040517f08c379a000000000000000000000000000000000000000000000000000000000815260040161077f906111c5565b60405180910390fd5b6107b27f5146a08baf902532d0ee2f909971144f12ca32651cd70cbee1117cddfb3b3b33826104ae565b50565b6000600160008373ffffffffffffffffffffffffffffffffffffffff1673ffffffffffffffffffffffffffffffffffffffff168152602001908152602001600020549050919050565b60007f01ffc9a7000000000000000000000000000000000000000000000000000000007bffffffffffffffffffffffffffffffffffffffffffffffffffffffff1916827bffffffffffffffffffffffffffffffffffffffffffffffffffffffff1916149050919050565b600033905090565b61087a8282610600565b6109095761089f8173ffffffffffffffffffffffffffffffffffffffff166014610be7565b6108ad8360001c6020610be7565b6040516020016108be929190611133565b6040516020818303038152906040526040517f08c379a000000000000000000000000000000000000000000000000000000000815260040161090091906111a3565b60405180910390fd5b5050565b6109178282610600565b6109e957600160008084815260200190815260200160002060000160008373ffffffffffffffffffffffffffffffffffffffff1673ffffffffffffffffffffffffffffffffffffffff16815260200190815260200160002060006101000a81548160ff02191690831515021790555061098e610868565b73ffffffffffffffffffffffffffffffffffffffff168173ffffffffffffffffffffffffffffffffffffffff16837f2f8788117e7eff1d82e926ec794901d17c78024a50270940304540a733656f0d60405160405180910390a45b5050565b6109f78282610600565b15610aca57600080600084815260200190815260200160002060000160008373ffffffffffffffffffffffffffffffffffffffff1673ffffffffffffffffffffffffffffffffffffffff16815260200190815260200160002060006101000a81548160ff021916908315150217905550610a6f610868565b73ffffffffffffffffffffffffffffffffffffffff168173ffffffffffffffffffffffffffffffffffffffff16837ff6391f5c32d9c69d2a47ea670b442974b53935d1edc7fd64eb21e047a839171b60405160405180910390a45b5050565b60008183610adc91906112ee565b905092915050565b60008183610af291906112bd565b905092915050565b610b0f81600454610ee190919063ffffffff16565b600481905550610b2a81600554610ee190919063ffffffff16565b60058190555050565b610b8581600160008573ffffffffffffffffffffffffffffffffffffffff1673ffffffffffffffffffffffffffffffffffffffff16815260200190815260200160002054610ee190919063ffffffff16565b600160008473ffffffffffffffffffffffffffffffffffffffff1673ffffffffffffffffffffffffffffffffffffffff16815260200190815260200160002081905550610bdd81600454610ee190919063ffffffff16565b6004819055505050565b606060006002836002610bfa91906112ee565b610c049190611267565b67ffffffffffffffff811115610c43577f4e487b7100000000000000000000000000000000000000000000000000000000600052604160045260246000fd5b6040519080825280601f01601f191660200182016040528015610c755781602001600182028036833780820191505090505b5090507f300000000000000000000000000000000000000000000000000000000000000081600081518110610cd3577f4e487b7100000000000000000000000000000000000000000000000000000000600052603260045260246000fd5b60200101907effffffffffffffffffffffffffffffffffffffffffffffffffffffffffffff1916908160001a9053507f780000000000000000000000000000000000000000000000000000000000000081600181518110610d5d577f4e487b7100000000000000000000000000000000000000000000000000000000600052603260045260246000fd5b60200101907effffffffffffffffffffffffffffffffffffffffffffffffffffffffffffff1916908160001a90535060006001846002610d9d91906112ee565b610da79190611267565b90505b6001811115610e93577f3031323334353637383961626364656600000000000000000000000000000000600f861660108110610e0f577f4e487b7100000000000000000000000000000000000000000000000000000000600052603260045260246000fd5b1a60f81b828281518110610e4c577f4e487b7100000000000000000000000000000000000000000000000000000000600052603260045260246000fd5b60200101907effffffffffffffffffffffffffffffffffffffffffffffffffffffffffffff1916908160001a905350600485901c945080610e8c906113f9565b9050610daa565b5060008414610ed7576040517f08c379a0000000000000000000000000000000000000000000000000000000008152600401610ece906111e5565b60405180910390fd5b8091505092915050565b60008183610eef9190611267565b905092915050565b600081359050610f06816115ab565b92915050565b600081359050610f1b816115c2565b92915050565b600081359050610f30816115d9565b92915050565b600060208284031215610f4857600080fd5b6000610f5684828501610ef7565b91505092915050565b600060208284031215610f7157600080fd5b6000610f7f84828501610f0c565b91505092915050565b60008060408385031215610f9b57600080fd5b6000610fa985828601610f0c565b9250506020610fba85828601610ef7565b9150509250929050565b600060208284031215610fd657600080fd5b6000610fe484828501610f21565b91505092915050565b610ff68161135a565b82525050565b61100581611366565b82525050565b600061101682611240565b611020818561124b565b93506110308185602086016113c6565b61103981611481565b840191505092915050565b600061104f82611240565b611059818561125c565b93506110698185602086016113c6565b80840191505092915050565b600061108260278361124b565b915061108d82611492565b604082019050919050565b60006110a560208361124b565b91506110b0826114e1565b602082019050919050565b60006110c860178361125c565b91506110d38261150a565b601782019050919050565b60006110eb60118361125c565b91506110f682611533565b601182019050919050565b600061110e602f8361124b565b91506111198261155c565b604082019050919050565b61112d816113bc565b82525050565b600061113e826110bb565b915061114a8285611044565b9150611155826110de565b91506111618284611044565b91508190509392505050565b60006020820190506111826000830184610fed565b92915050565b600060208201905061119d6000830184610ffc565b92915050565b600060208201905081810360008301526111bd818461100b565b905092915050565b600060208201905081810360008301526111de81611075565b9050919050565b600060208201905081810360008301526111fe81611098565b9050919050565b6000602082019050818103600083015261121e81611101565b9050919050565b600060208201905061123a6000830184611124565b92915050565b600081519050919050565b600082825260208201905092915050565b600081905092915050565b6000611272826113bc565b915061127d836113bc565b9250827fffffffffffffffffffffffffffffffffffffffffffffffffffffffffffffffff038211156112b2576112b1611423565b5b828201905092915050565b60006112c8826113bc565b91506112d3836113bc565b9250826112e3576112e2611452565b5b828204905092915050565b60006112f9826113bc565b9150611304836113bc565b9250817fffffffffffffffffffffffffffffffffffffffffffffffffffffffffffffffff048311821515161561133d5761133c611423565b5b828202905092915050565b60006113538261139c565b9050919050565b60008115159050919050565b6000819050919050565b60007fffffffff0000000000000000000000000000000000000000000000000000000082169050919050565b600073ffffffffffffffffffffffffffffffffffffffff82169050919050565b6000819050919050565b60005b838110156113e45780820151818401526020810190506113c9565b838111156113f3576000848401525b50505050565b6000611404826113bc565b9150600082141561141857611417611423565b5b600182039050919050565b7f4e487b7100000000000000000000000000000000000000000000000000000000600052601160045260246000fd5b7f4e487b7100000000000000000000000000000000000000000000000000000000600052601260045260246000fd5b6000601f19601f8301169050919050565b7f54686973206164647265737320636f6e7461696e732066756e647320696e204260008201527f616c616e63652e00000000000000000000000000000000000000000000000000602082015250565b7f537472696e67733a20686578206c656e67746820696e73756666696369656e74600082015250565b7f416363657373436f6e74726f6c3a206163636f756e7420000000000000000000600082015250565b7f206973206d697373696e6720726f6c6520000000000000000000000000000000600082015250565b7f416363657373436f6e74726f6c3a2063616e206f6e6c792072656e6f756e636560008201527f20726f6c657320666f722073656c660000000000000000000000000000000000602082015250565b6115b481611348565b81146115bf57600080fd5b50565b6115cb81611366565b81146115d657600080fd5b50565b6115e281611370565b81146115ed57600080fd5b5056fea264697066735822122012fb4ad0a3f2575c00dc24f12fdcfcb0a98febe03a5c257576ea48887bb4dccf64736f6c63430008010033",
  "immutableReferences": {},
  "source": "// SPDX-License-Identifier: MIT\npragma solidity >=0.4.22 <0.9.0;\npragma experimental ABIEncoderV2;\n\n\n/**despite safemath is not needed since 0.8.x I consider is a good practice */\nimport \"../node_modules/@openzeppelin/contracts/utils/math/SafeMath.sol\"; \nimport \"../node_modules/@openzeppelin/contracts/access/AccessControlEnumerable.sol\";  \n\ncontract Ethpool is AccessControl  {\n  using SafeMath for uint256;\n\n  bytes32 public constant TEAM_ROLE = keccak256(\"TEAM_ROLE\");\n\n  mapping(address => uint) public balances;\n  mapping(address=>uint) public shares;\n  address[] beneficiaryList;\n  \n  uint contractBalance;\n  uint prize;\n\n  constructor() public {\n\n    _setupRole(DEFAULT_ADMIN_ROLE, msg.sender);\n  }\n\n\n  function deposit() payable external{\n    if (hasRole(keccak256(\"TEAM_ROLE\"),msg.sender)) {\n      _teamDeposit(msg.value);\n    }\n    else {\n      _userDeposit(msg.sender, msg.value);\n    }\n  }\n\n  function _userDeposit(address user, uint value) internal {\n\n   // beneficiaryList[user] = True; // mal, validar si user es beneficiario previamente, \n    \n    \n    balances[user] = balances[user].add(value);\n    contractBalance = contractBalance.add(value); \n  }\n  \n\n\n  function getBalance(address user) external view returns(uint){\n    return balances[user];\n\n  }\n\n    function getPrize() external view returns(uint){\n    return prize;\n\n  }\n  function _teamDeposit(uint value) internal {\n  \n  \n    contractBalance = contractBalance.add(value);\n    prize = prize.add(value);\n    \n    \n\n  }\n\n\n  //function withdraw();\n\n  function grantTeamRole(address member) public {\n    //a Team member cannot contain balance in the EthPool\n    require(balances[member]==0,\"This address contains funds in Balance.\");\n    grantRole(keccak256(\"TEAM_ROLE\"),member);      \n  }\n\n  function getShare(address user) public view returns(uint) {\n    \n    uint balance = balances[user];\n\n    balance = balance.mul(100).div(contractBalance);    \n    return balance;\n\n  }\n\n  function getContractBalance() external view returns (uint){\n    return contractBalance;\n  }\n\n}\n",
  "sourcePath": "/home/fribas/solidity/truffle/exactly/contracts/Ethpool.sol",
  "compiler": {
    "name": "solc",
    "version": "0.8.1+commit.df193b15.Emscripten.clang"
  },
  "schemaVersion": "3.4.1",
  "updatedAt": "2021-12-20T03:34:35.896Z",
  "networkType": "ethereum",
  "devdoc": {
    "kind": "dev",
    "methods": {
      "getRoleAdmin(bytes32)": {
        "details": "Returns the admin role that controls `role`. See {grantRole} and {revokeRole}. To change a role's admin, use {_setRoleAdmin}."
      },
      "grantRole(bytes32,address)": {
        "details": "Grants `role` to `account`. If `account` had not been already granted `role`, emits a {RoleGranted} event. Requirements: - the caller must have ``role``'s admin role."
      },
      "hasRole(bytes32,address)": {
        "details": "Returns `true` if `account` has been granted `role`."
      },
      "renounceRole(bytes32,address)": {
        "details": "Revokes `role` from the calling account. Roles are often managed via {grantRole} and {revokeRole}: this function's purpose is to provide a mechanism for accounts to lose their privileges if they are compromised (such as when a trusted device is misplaced). If the calling account had been revoked `role`, emits a {RoleRevoked} event. Requirements: - the caller must be `account`."
      },
      "revokeRole(bytes32,address)": {
        "details": "Revokes `role` from `account`. If `account` had been granted `role`, emits a {RoleRevoked} event. Requirements: - the caller must have ``role``'s admin role."
      },
      "supportsInterface(bytes4)": {
        "details": "See {IERC165-supportsInterface}."
      }
    },
    "version": 1
  },
  "userdoc": {
    "kind": "user",
    "methods": {},
    "version": 1
  }
}